S0120000626C655F73696C69636F6E2E7333375F
S31508012000C80A0020752F01087724030877240308D6
S315080120108D460308772403087724030877240308E1
S31508012020772403087724030877240308D1EF0308E4
S31508012030772403080831040861EF03084B200408D4
S3150801204077240308772403087724030877240308E9
S3150801205077240308772403087724030877240308D9
S3150801206077240308772403087724030877240308C9
S315080120707724030877240308A92B01088B2303086F
S3150801208077240308772403087724030877240308A9
S315080120907724030877240308772403087724030899
S315080120A07724030877240308772403087724030889
S315080120B07724030877240308772403087724030879
S315080120C0772403087724030877240308A53701082A
S315080120D0772403087724030877240308E5330108DE
S315080120E0C5330108772403087724030877240308EE
S315080120F07724030809C8020831D302084DC4030826
S3150801210049C40308D9CA020863C4030851C40308A9
S3150801211001D3020855C4030871D30208DDD30208A6
S315080121207724030877240308772403087724030808
S315080121300F3F030877240308772403087724030845
S3150801214077240308772403087724030877240308E8
S3150801215077240308772403087724030877240308D8
S3150801216077240308772403087724030877240308C8
S3150801217077240308772403087724030877240308B8
S3150801218077240308296E0108772403081720040811
S315080121908DAD02087724030837C403083DC4030834
S315080121A07724030877240308772403087724030888
S309080121B07724030876
S315080121B4F0B5114A114C124E00F00105E3695F07A7
S315080121C413D40DB9334213D103EA00078F4207D159
S315080121D40B4A1A40002A0CBF00206FF00100F0BD1B
S315080121E4013AEBD16FF00200F9E74FF0FF30F6E759
S315080121F46FF00100F3E700BF8096980000000350D2
S31508012204020001000B4B70B5D96911F480310DD167
S3150801221401244FF48072084E084DF46020462C645C
S315080122241A61FFF7C5FF3464EC6070BD6FF00100F5
S31508012234FBE700BF000003500010035000200350C1
S315080122444FF4803238B50E4B0E4C9A66E56941F661
S31508012254713315400122E3630B4B0021DA60022333
S31508012264606121202361FFF7A3FF10B92120FFF73D
S315080122749FFF0122054BDA600DB10023E36338BDE4
S315080122840090005000000350001003500020035032
S3150801229470B5134C6061E3695B071ED40E4656F8A4
S315080122A4043B8D18A361AE420BD1042300212120DE
S315080122B42361FFF77DFF58B9BDE870402120FFF778
S315080122C477BF08210846FFF773FF10B1042323617A
S315080122D470BD56F8043BA361E5E74FF0FF30F7E715
S315080122E4000003502DE9F84315464FF48032184B84
S315080122F489469A6603F51C33DF690646174041F693
S315080123047132DA63012203F58053DFF84C80DA600F
S3150801231455B9284601220F4BDA601FB10022A3F5ED
S315080123240053DA63BDE8F88306F5005404EA0804A1
S31508012334A41BAC4228BF2C46494622463046FFF721
S31508012344A7FF0028E6D12644A1442D1BE0E700BFD8
S31508012354009000500020035000E0FFFF0000000039
S31508012364000000000000000000000000000000005A
S31508012380002370B5424C05468AB0E36318B100884C
S3150801239023600FF0D9FA0FF081FC3E4829F052FA72
S315080123A03D4E3E4B304633603D4B736026F06FFA27
S315080123B00021304613F0DAFF33A3D3E90023A062E4
S315080123C0C4E9062326F06EFAD4E906231943104315
S315080123D0C4E90601CDE900014FF0FF334FF0FF32A2
S315080123E0A06A29F0D6FA02224FF0FF31A06A29F035
S315080123F0D5FA01200EF0F8FF4FF40073002229499F
S31508012400A06A29F0CDFBB0F5007F39D100239422CB
S31508012410079309933C23CDE9033205939623069343
S315080124205023A06A03A9089314F0BAF835B3287C97
S315080124300FF046FC0546F0B9A06A29F0A6FC0FF094
S31508012440CDFC0EF0B3FF20B14FF4807000210BF0E4
S31508012450ADF80EF0BBFF20B14FF4006000210BF080
S31508012460A5F826F0E8FA012029F0C0F90E4A0F4925
S31508012470A06A26F00AFA28460AB070BDFF20D7E7F7
S315080124800725F8E7AFF300800DD5015520000000B8
S31508012490380B0020690345EC882D0020211202081B
S315080124A0982D0020882B0020338803087388030899
S315080124B00348044B834202D0034B03B118477047C4
S315080124C0A03D0020A03D002000000000064B074962
S315080124D0C91A891048BF0131491003D0044B0BB101
S315080124E001481847704700BFA03D0020A03D0020C5
S315080124F00000000010B5064C237843B9FFF7D8FF52
S31508012500044B13B10448AFF300800123237010BDB7
S315080125106036002000000000EC8A040808B5054B67
S315080125201BB105490548AFF30080BDE80840FFF730
S31508012530CDBF00BF00000000B80D0020EC8A0408DA
S31508012540A3F5803A704700BF174B002B08BF134B02
S315080125509D46FFF7F5FF00218B460F461348144A9F
S31508012560121A2CF0BCFA0E4B002B00D098470D4BD3
S31508012570002B00D098470020002104000D000D48CB
S31508012580002802D00C48AFF300801FF0F9FB2000A9
S3150801259029001FF08CFE1FF06FFA00BF000008002B
S315080125A00000000000000000C80A0020C80A002038
S315080125B0403900200000000000000000F0B5064682
S315080125C00F46C1B0002900F09580662908D9662210
S315080125D04A481FF017FB6FF00104204641B0F0BDD1
S315080125E00125742200210DF10E002CF078FA444AD7
S315080125F0FCB2137831462B44DBB2AB4238BF2B46CB
S3150801260013708DF80930ADF80B300A2304F10B026B
S315080126108DF80A200DF116003A468DF80D308DF821
S3150801262012308DF815408DF808502CF063FAFF2307
S3150801263029460DF107008DF8073000F075FB0E34B9
S31508012640A842E4B205D02F481FF0F6FA6FF002044B
S31508012650C3E7214602A800F067FB844201D02A4855
S31508012660F2E79DF809502EF09FFC0446642121A843
S3150801267000F02EFB012808D19DF88430FF2B07D0E6
S315080126802EF092FC031B642BF0D96FF0030414E0BF
S31508012690002421AB6421181900F01AFB0128F4D192
S315080126A00134032CF5D19DF88430812B03D19DF893
S315080126B08530AB4206D06FF00404214613481FF05B
S315080126C0A1FA8AE79DF8863083B99DF88740002CE0
S315080126D083D0F0E76421601900F0FAFA0128D4D111
S315080126E001359DF886309D42F4DBEEE700250DF1B4
S315080126F08704F6E74FF0FF346FE700BF682C04083C
S3150801270061360020972C0408C22C0408E82C04081A
S3150801271030B54FF4E131C3B0154800F04BFA40B17A
S3150801272014481FF089FA002043B0BDE830402EF066
S315080127307BBB1022114613F0ADFA30B101460E48A3
S315080127401FF060FA00F096FAEDE70121084613F04A
S31508012750B9FA014608B10948F2E701A828F09FFF2E
S3150801276010B901A800F004F90A202EF01FFDF4E7BC
S315080127701A2D04081B2D04083C2D0408652D040890
S315080127802DE9F04389B0914698460546109F129E59
S3150801279000283ED0002A3CD0002F3AD0002E38D04F
S315080127A00A4600230146684623F0D9F803226846FB
S315080127B004A923F0F4F848BB174904A81FF06AFDD9
S315080127C006220446494604A823F0DFF813490443C0
S315080127D004A81FF05FFD42460443D31704A823F05B
S315080127E0C5F80F49044304A81FF054FD3946119A48
S315080127F0044304A823F0C9F804A90443684623F04E
S31508012800DFF8204302D1009B5B1B336009B0BDE8AA
S31508012810F0834FF0FF30F9E7862D04088A2D040866
S315080128208F2D040870B50D46044688B109481FF076
S31508012830E9F9094E2544AC4204D1BDE870400A20A5
S315080128401FF0F2B9304614F8011B1FF0DBF9F2E765
S3150801285070BD00BF982D0408A32D040830B50446A1
S31508012860A7B068B1002305930368334A23F47F436D
S3150801287023F00703934205D002F1007293422FD049
S3150801288027B030BD90F90D3004F11705039343794C
S31508012890029383790193C3790093037A427A817A01
S315080128A026481FF0AFF92846A17DFFF7BBFF05AB08
S315080128B00293A37D8021CDE90053621D94F90D3061
S315080128C006A8FFF75DFF0028DAD1059906A8FFF7E4
S315080128D075FE01460028D3D019481FF093F9CFE7B2
S315080128E090F90D3004F11F05039343790293837917
S315080128F00193C3790093037A427A817A11481FF0CA
S3150801290081F92846A17FFFF78DFF05AB0293A37FC7
S315080129108021CDE90053621D94F90D3006A8FFF711
S315080129202FFF0028ACD1059906A8FFF747FE0146F7
S315080129300028A5D00448D0E7A0000500A92D040861
S31508012940E22D04080C2E0408472E040807B50023B7
S3150801295002220549CDE9002304484FF4007230F0FC
S3150801296087F803B05DF804FB732E040811270108E4
S315080129700268044B1340044A934201D1FFF76EBF24
S31508012980704700BFF800FFFDA00005000022014BBB
S315080129901A807047283600207FB50368264A23F433
S315080129A07F4323F00703934243D1002108221220D3
S315080129B0224B10F09DFA014608B100BEFDE703223D
S315080129C014201F4B10F094FA014608B100BEFDE72A
S315080129D0052216201B4B10F08BFA08B100BEFDE745
S315080129E00DF1070102A813F037F9014608B100BE37
S315080129F0FDE7BDF80C3008225BBAADF810309DF83A
S31508012A000B3018208DF81230FF238DF81330FE2372
S31508012A108DF814309DF80A308DF81530BDF8083058
S31508012A205BBAADF8163004AB10F062FA08B100BE15
S31508012A30FDE707B05DF804FBA00001007B2E040842
S31508012A40842E0408882E0408064B1B681A7A022A63
S31508012A5004D812B11B68044A13607047032AF9D0D7
S31508012A60704700BF0C3B0020D00D002030B5224D29
S31508012A7095B00DAC0FCD0FC495E80700032384E884
S31508012A8007008DF84D3029231C4A1D49CDE902233B
S31508012A904FF4C0630E24CDE90413002122460DF13B
S31508012AA0260006912CF01BF84FF48020154B07A938
S31508012AB0CDE907030F238DF82530134B0DAA0A9389
S31508012AC020230B9301238DF83130104B10480093C6
S31508012AD002AB8DF8244006F0B1FA04469DF832306F
S31508012AE04FF4E130002B0CBF032100211FF0B4FC89
S31508012AF0204615B030BD00BFC430040800000A5096
S31508012B000102010324000A5062360020D40D002078
S31508012B100C0F0020831E012B10B50C4619D801296C
S31508012B200DD8184B04221B6F02210120C3F3800321
S31508012B3003F0A6FC24B1144B18680368F3B910BD59
S31508012B40114B18680368002BF9D0BDE8104006F050
S31508012B5033BA8B1E012B0CD80128F0D8BDE81040DA
S31508012B60084B00221B6F02210120C3F3800303F0E7
S31508012B7087BC0029E4D00129DDD0E0E7BDE8104093
S31508012B8021F078BC00C00350203B002008B5044959
S31508012B90044806F08FFEBDE80840FFF767BF00BF8F
S31508012BA0243B0020340F0020014821F0DEBC00BF81
S31508012BB00C0F00202DE9F041DFF8B4800F4698F894
S31508012BC0004088B0002C47D101213A2002F0F4FCDC
S31508012BD00121292002F0F0FC0123042218460221D2
S31508012BE003F04EFC012302221846032103F048FC98
S31508012BF01B4E012302220621204603F041FC01ADAA
S31508012C00234604222146204603F03AFC0FCE0FC57F
S31508012C1096E80700032385E80700124801A98DF8FD
S31508012C201D30039703F03CFE17220F4B2046C3F8CD
S31508012C3020280E4AC3F8382802F58032C3F830280E
S31508012C404FF4C022C3F82428C3F82C48012388F876
S31508012C50003008B0BDE8F0814FF0FF30F9E700BF5A
S31508012C60E030040800000A5000C0035001000200C9
S31508012C708236002010B5144C237813B3002113486B
S31508012C8020F097F90021292002F096FC0023022161
S31508012C901A46012003F0F4FB002303211A460120FA
S31508012CA003F0EEFB002306211A46184603F0E8FB5B
S31508012CB0002318461A46194603F0E2FB0020207045
S31508012CC010BD4FF0FF30FBE78236002000000A50A6
S31508012CD0134B2DE9F0411B7805460C46E3B1D8B1F3
S31508012CE02FF056F90646A0B22DF0DAF90746DFF8B5
S31508012CF03480D8F8184014F0800406D0094820F02A
S31508012D0067F928700120BDE8F0812FF041F9801B91
S31508012D10B842EED32046F6E74FF0FF30F3E700BF9F
S31508012D208236002000000A50F8B50D4B04461B7880
S31508012D300D4693B188B10B4E4718BC4204D1B3690D
S31508012D409B06FCD52846F8BDB3695A06FCD530461C
S31508012D5014F8011B20F042F9EFE74FF0FF30F2E7D4
S31508012D608236002000000A50044B834205D1044BE9
S31508012D701B7813B1C8B212F05DBF70473C0F002033
S31508012D808336002030B500250368354A23F47F438E
S31508012D9023F0070385B0934204460295ADF80C501B
S31508012DA037D002F5802293420CD0A2F18272934267
S31508012DB053D12C4B1B78002B4FD005B0BDE83040C2
S31508012DC021F09FBCB0F805301B2B46D1FF2304A97F
S31508012DD01A4611E903001FF0DAFA012814BF41F275
S31508012DE0FC15204B4FF01B0108BF187005F0FC02BB
S31508012DF0207910F093F808B100BEFDE71A49009052
S31508012E0023791A4A09681A4800F034F828B300BE2B
S31508012E10FDE7B0F80530B7EE047A07EE903AF8EE1A
S31508012E20677AB0F8073067EE877A013307EE103A0A
S31508012E30B8EEC77A67EE877AB1EE047A67EE877AD3
S31508012E40FAFE677AFCEEE77A17EE903AB3F57A7FDF
S31508012E5038BF4FF47A73044A136005B030BD00BF1A
S31508012E60A0000602833600202C3B0020692D0108AC
S31508012E703C0F00202DE9F743054690461F469DF86D
S31508012E80289049B9B9F1000F38D1002814BF21207B
S31508012E90222003B0BDE8F08370B34FF47A7303FBC5
S31508012EA001F404F2E7349C42B4FBF3F626D31FF08F
S31508012EB07DFA012801D10120EBE7134B3146009336
S31508012EC04A462B4611482FF01FFE0646C0B1C5E9F2
S31508012ED00008AF6085F810902EF066F800240246C7
S31508012EE023460121304600942EF06CFC012809D0B6
S31508012EF028461FF05BFADEE72220CAE72120C8E749
S31508012F001920C6E72046C4E79D230308FC300408B8
S31508012F1008B5034820F0F2FFBDE808401FF0DFB905
S31508012F203C440408014820F0E9BF00BF3C440408BA
S31508012F3007B508201FF0BBFA02238DF80030054BB0
S31508012F40684601931FF04CFA082003B05DF804EBBC
S31508012F501FF0B8BA006A18100348044A0449121A3D
S31508012F6092101FF089BA00BFB42101087423010821
S31508012F704039002008B500F02FF8FFF7EDFF124B96
S31508012F8012498B4212D30020114B12498B4218D396
S31508012F90FFF7DAFA186850F82240586840F82240D4
S31508012FA0013298688242F5D30C33EAE70022F8E742
S31508012FB01C6844F8220001325C68A242F8D308333F
S31508012FC0E4E70022F8E700BFF48A0408008B040846
S31508012FD0008B0408008B04084FF48041144B154AF2
S31508012FE070B59A60D3F88820134D42F47002C3F87D
S31508012FF08820124A05F5005491664FF0FF32226681
S315080130006FF4003262660D22A2660222C3F8D0204E
S31508013010BFF34F8FBFF36F8F4FF44036002005F093
S31508013020EBFD0020E66005F0CBFD2E6170BD00BF0B
S3150801303000ED00E0002001080080004400900050E7
S31508013040014B1860704700BF343B0020054B1860E0
S31508013050054B1B6F03F00703032B01D12BF0F0BFC0
S31508013060704700BF3C3B0020008000504FF00063D2
S315080130709B6A03F17842B2F5903F03D21968064A72
S31508013080914203D0002303708360704701220270C6
S315080130909A689B694260F7E707B0CD5E4FF0006317
S315080130A09B6A10B503F17842B2F5903F11D21968BF
S315080130B0094A91420DD1094C227812F0FD0F01D02F
S315080130C0002010BDDB6998470028FAD10123237037
S315080130D0F6E74FF48170F4E707B0CD5E8436002039
S315080130E0024B034A1A6020F014BF00BF00000020FB
S315080130F002020FF0BFF34F8F0549064BCA6802F467
S31508013100E0621343CB60BFF34F8F00BFFDE700BFFB
S3150801311000ED00E00400FA05002307B529480193EC
S3150801312020F0ECFE4FF44073012204216846ADF805
S31508013130003000F0C3F80122234B0520C3F84424CC
S3150801314001A92EF073FE002839D1204BD3F8F020BF
S3150801315042F00102C3F8F020D3F8FC2042F0807255
S31508013160C3F8FC201A4AA3F55D431A60019B194A64
S3150801317003F5D52303F2FC43B3FBF2F3164A013BED
S3150801318013610223C2F8F0304FF48073C2F8043396
S315080131904FF06043114AC3F8B02F114AC3F8802E85
S315080131A0D3F8002E42F48072C3F8002EFF2283F86A
S315080131B02020D3F8002E22F48072C3F8002E03B023
S315080131C05DF804FB3C44040800D0035000ED00E020
S315080131D0FF030040F8590D00000004E055CEACC5C8
S315080131E0090001004FF06043D3F8802E30B5D207AD
S315080131F015D501240B4D8440D5F8FC2042F0807288
S31508013200C5F8FC20D3F8002E2243C3F8002E53F844
S315080132102020002AF0D003F82010002030BD11200C
S31508013220FCE700BF00ED00E02DE9F04104460C255E
S315080132304FF00108124E0CB314F001000BD0002018
S3150801324024F0010405FB00625768002FF3D091684A
S31508013250C0B2B847EFE72246013020284FEA5202AA
S3150801326001D0D307F8D508FA00F20F2824EA020498
S31508013270E8D9103805FB0062B432E5E7BDE8F0810C
S31508013280500F002008B50C4820F038FE272005F01D
S31508013290A5FC28B1272005F0AFFC272005F090FCF6
S315080132A0282005F09BFC28B1282005F0A5FC28203C
S315080132B005F086FC002008BD3C4404082DE9F041D0
S315080132C00E461746054610B30F2922D80378E3B1EF
S315080132D0013BDBB2022B1CD8104A32F813306A784C
S315080132E0D340DB0715D50E4BD3F810439CB92EF006
S315080132F01DFC80463A462846314603F063FB4046A4
S315080133002EF00FFC2046BDE8F081FF23E7E72224D3
S31508013310F8E72124F6E70224F4E700BF5831040848
S3150801332000C0035010B50446E0B10378C3B1013BB0
S31508013330DBB2022B18D80D4A32F813306278D34023
S31508013340DB0711D52EF0F2FB0122637821789A402A
S3150801335030235943064B5A502EF0E3FB002010BD8B
S31508013360FF23EBE72220FAE72120F8E75831040882
S3150801337040D0035010B50446E0B10378C3B1013B10
S31508013380DBB2022B18D80D4A32F813306278D340D3
S31508013390DB0711D52EF0CAFB0122637821789A4002
S315080133A030235943064B5A502EF0BBFB002010BD63
S315080133B0FF23EBE72220FAE72120F8E75831040832
S315080133C040E0035008B503F0F3FA054B00F0553019
S315080133D020F0A040C3F82004BDE80840FFF724BF49
S315080133E000E0035008B503F0E3FA054B00F0AA30F4
S315080133F020F02040C3F82004BDE80840FFF714BFB9
S3150801340000E003502DE9F04F9A46564B85B01B78DC
S3150801341006460F461546DDF83C909DF844B0DDF8A2
S315080134205080002B00F09780072A00F296800E9BA9
S31508013430002B00F09280B9F1000F00F08E80129BEC
S31508013440B3F5006F00F38980012803D1109B002B87
S3150801345000F08380444B03EB05131B7B002B7ED0C6
S31508013460424C1022002168462BF039FB04EB451427
S315080134701022A7BB394620462BF031FB43F2100335
S315080134806380BBF1000F03D1E37843F00303E370D4
S31508013490364A0E9B02EB451CCCE90193129B690146
S315080134A0581E9DF84C30C0F30A0003F003039B062F
S315080134B043EA001E53582E48012E00EA03004EEA3D
S315080134C00003CDF800A0535017D0B8F1000F2ED144
S315080134D09CF8023068F304138CF8023027E00021C7
S315080134E020462BF0FCFA4FF444736380BBF1000FBE
S315080134F0CED1E37843F03003C9E713230CF1100E5C
S31508013500CCF80C309CE80F008EE80F006FF0030131
S31508013510DCF81C20109B61F39F02012FCCF81C20BC
S31508013520CCF8143003D1CCF81890CCF80430002725
S315080135300D4A290102EB051342F80180159A28461E
S315080135405A60694622469F605E7303F02DF8384635
S3150801355005B0BDE8F08F0748FAE70748F8E70748D6
S31508013560F6E700BF85360020B8110020B810002004
S315080135700F80FFF3028000F0018000F0078000F061
S3150801358038B5124B05461B78DBB1E0B12EF0CEFA01
S315080135900F4A00231146147B54B92B6001251A01E1
S315080135A001EB03131D738C502EF0BBFA204638BD70
S315080135B00133082B02F11002EDD12EF0B2FA0548BB
S315080135C0F5E70548F3E70548F1E700BF853600202A
S315080135D0B8110020048000F0028000F0018000F09C
S315080135E038B52EF0A3FA002305460B4A147B6CB9AD
S315080135F00133082B02F11002F8D102F081FF074BC3
S3150801360028461C702EF08DFA204603E028462EF037
S3150801361088FA034838BD00BFB81100208536002056
S31508013620058000F00D4B10B51B78044693B10728A9
S3150801363012D82EF07BFA0A4B03EB04131A7B2AB134
S3150801364000241C732EF06DFA204610BD2EF069FA7F
S315080136500448FAE70448F8E70448F6E785360020FF
S31508013660B8110020068000F0028000F0018000F009
S31508013670154B13B51868002301908DF804302EF008
S3150801368055FA124B1C7824B12EF04BFA104802B0A9
S3150801369010BD01221A702EF044FA0E4B01A81C73B4
S315080136A01C7783F82C4083F83C4083F84C4083F818
S315080136B05C4083F86C4083F87C4008238DF807301A
S315080136C002F042FF2046E2E75E3104088536002013
S315080136D0038000F0B8110020F8B50D4D2D7885B19D
S315080136E0072810DC0B4D060105EB0014277B67B193
S315080136F0AB510025069BA560636002F055FF28467D
S31508013700F8BD0548FCE70548FAE70548F8E700BFAC
S3150801371085360020B8110020028000F0018000F0F3
S31508013720078000F00A4A08B512785AB107280BD85B
S31508013730084A02EB00131B7B43B1002102F0F6FE97
S31508013740002008BD0448FCE70448FAE70448F8E7FE
S3150801375085360020B8110020028000F0018000F0B3
S31508013760078000F00A4A08B512785AB107280BD81B
S31508013770084A02EB00131B7B43B1012102F0D6FE76
S31508013780002008BD0448FCE70448FAE70448F8E7BE
S3150801379085360020B8110020028000F0018000F073
S315080137A0078000F0184B2DE9F0411F6D5B6D1F4036
S315080137B000D5FEE701260025144CDFF8588037426C
S315080137C018D02368C8F85060A3B1A168284601310A
S315080137D06268A1609847637B012B0BD150B90C4BEA
S315080137E003EB45131A7B60F341021A731A7F60F3E0
S315080137F041021A770135082D4FEA460604F11004ED
S31508013800DDD1BDE8F08100BF00000450B8110020E9
S31508013810B8100020002004502DE9F04F1446064642
S315080138200D469B46C36B87B001225B6902A9606896
S315080138309847F36B01225B6903A92846984702A8B2
S315080138401FF05BFA074648B10023A37563754FF06D
S31508013850FF33A360002007B0BDE8F08F03A81FF06F
S3150801386059FA0123A375237E04EBC303DD611F8483
S315080138706368AB420ED1206003A81FF06DFA4FF0C2
S31508013880FF332075A360237D043B022B26D8002332
S31508013890A375DFE723681A1A53425341A37503A890
S315080138A01FF05AFA237D834218BFA77503A81FF094
S315080138B035FA074602A81FF031FA874218BF0023D6
S315080138C003A818BFA3751FF031FA074602A81FF00F
S315080138D02DFA87421CBF0023A375D4E703A81FF05E
S315080138E01DFA80B1F36B022228465B6904A9984741
S315080138F004A81FF022FA0346207D032839D8DFE8F9
S3150801390000F03838040903A8F3E7CC22237E04EB38
S31508013910C3031A8401F0A2FA109B187003A8277E24
S315080139201FF0F0F904EBC70787F82200237E03A8E6
S3150801393004EBC303B3F8209093F822701FF0EEF955
S31508013940804603A81FF0F2F98246B8F1000F15D098
S31508013950F36B022228465B6904A9984704A81FF05D
S31508013960B1F96075637D6BB90023A3754FF0000843
S3150801397038E0227E04EBC2021384CBE703A81FF0CA
S315080139808CF9EEE794F81680B8F1000FEED0B9F18C
S31508013990000F09D1DFB10123627EE375002A44D104
S315080139A09F4218D1677614E0736C05EB0A025942F7
S315080139B085EA020008421CBF0021A175591E0A406A
S315080139C09B1A9945D0D8A37D002BE3D1CEE7E37D99
S315080139D043B94FF000084B465246294630461EF079
S315080139E0CAFEA060A27D12B123694B442361144922
S315080139F0237E097899421ED901332376BBF1000F3C
S31508013A001BD0D2B1E37DC3B1B8F1000F15D1032F95
S31508013A1013D0A1684B1C10D0109B22460093304648
S31508013A200123FFF7F9FEA07507E0012FDAD0032F6E
S31508013A3008BFA376CDE70023A375A07D0BE700BFDA
S31508013A40843104082DE9F04F0E46984600238BB0C1
S31508013A5004464FF0FF31104617468DF8133001F032
S31508013A60E7F9B6F5801F3BD3B21C53D1E56A6B1C47
S31508013A7057D12046616A1EF0C4FD0546B31C18BF1E
S31508013A800123DFF810910193636A626C029323683C
S31508013A9005A902FB053AE36B05225B69504698477F
S31508013AA005A81FF0C5F91FF0E8F950461FF0F0F90F
S31508013AB04FF0000B824601464B1C05D0636C81EA28
S31508013AC00A025B42134232D0294620461EF099FD6E
S31508013AD0029BAB424DD0BBF1000F4DD10546D3E752
S31508013AE0314605AA04F108001FF055F80146481C9D
S31508013AF010D0384601F09CF90122394620460DF1CD
S31508013B0013031EF08AFE28B19DF8133088F8003099
S31508013B10002003E0237C002BA8D12D200BB0BDE8A3
S31508013B20F08F2368ED1A636CB5FBF3F5A6E74846F3
S31508013B3001F07EF90DF1130349462046019A1EF05C
S31508013B406CFE034690B1B21C03D0D9F80020B242EC
S31508013B500CD19DF8132003930D4B88F80020494694
S31508013B601A6838462AF0C6FF039B9B46D9F80810FF
S31508013B70A2E7BBF1000FD0D0B6F5801FC8D23146F7
S31508013B8098F800307A6804F1080001F07FF8BFE779
S31508013B9080310408AC1800202DE9F3410446174684
S31508013BA098460E46194D816AE36A8B422AD04B1C08
S31508013BB018E0284601F03CF90122294620460DF174
S31508013BC007031EF02AFE30B14346294620469DF8D2
S31508013BD00720B847B0B1A9684A1C05D0012E0AD0FA
S31508013BE0E36A9942E5D10DE0696820461EF096FD23
S31508013BF0012E0146D8D16B6881EA0302636C5B42E8
S31508013C001A42D1D002B0BDE8F08100BF8018002069
S31508013C102DE9F041036B9046826B07689A4288BF8B
S31508013C208363426C436A90B002FB0377C36B0E460B
S31508013C30052201A95B6904463846984701A81FF081
S31508013C40F7F801280146307057D0656CE26B236896
S31508013C50606AD2F814C005FB0030052206A9E047C0
S31508013C6006A81FF0E5F801284FF0000523D0D4E98E
S31508013C700A3201219342CDE90B458DF834800E9520
S31508013C808DF83C102AD1194620461EF047FD236BB4
S31508013C90626C14339B1AE06223630C9B53B99DF83B
S31508013CA03C303BB1626A616C2368E06B01FB02310F
S31508013CB01FF076F80C9DE36B05225B6901A938466E
S31508013CC0984701A81FF0B4F830702846236BA26BF9
S31508013CD09A4288BFA36310B0BDE8F081237C33B94B
S31508013CE01C490BAA04F1080001F01EF8D5E7204685
S31508013CF0194A0BABFFF750FFCFE7237C23BB2246BC
S31508013D00164904F1080001F00FF8616A20461EF011
S31508013D1099FC616A421C20461EF062FC054620B9E0
S31508013D20236B626C1344143B23632046A16A1EF07D
S31508013D30F5FC2368A062C01A636CB0FBF3F06062FD
S31508013D4020461EF02EFDB6E700232046044AFFF75B
S31508013D5023FFDAE725450108A1440108A32803083A
S31508013D603F28030873B50D46D11E4A421C461B7EE1
S31508013D704A419A4226D129682368994222D363681F
S31508013D8099421FD8114E0DF107033246FFF75AFE25
S31508013D90C0B972686B689A4214D19DF80730DA1E69
S31508013DA053425341227E93420CD1636901336361C5
S31508013DB0D4E90323934205D22968A26842F823105D
S31508013DC001332361012002B070BD00BFD81800205D
S31508013DD02DE9F04F9A468BB09DF85030DFF850B177
S31508013DE00293DBF81030804653450D461646C0F05F
S31508013DF09980D146DBF804300193B9F1000F00F040
S31508013E008D80D8F83C3001225B6907A9019898474B
S31508013E1007A81EF07FFFDBF80030984240F0858046
S31508013E2007A81EF083FF0428074614D107A81EF029
S31508013E3084FF019B029A04463B44002A3FD18642ED
S31508013E4012D91446361A404601991EF067FCA9EBA9
S31508013E5004090190D1E7D8F83C3002225B69019840
S31508013E6008A9984708A8E2E7841B544528BF544681
S31508013E70032C03EB0607AAEB040A4FEA94021CD9A2
S31508013E80D8F83C30294638465B69984724F003033D
S31508013E9004F003061F441D44002ED4D0D8F83C3044
S31508013EA001225B6908A9384698473246284608A977
S31508013EB035442AF01FFE0026C5E72646ECE70746E5
S31508013EC000F00302039203442A1804920593049B03
S31508013ED0DD1B059BD81B039B9F420FD1002FB2D038
S31508013EE0D8F83C30012208A95B6998473A46284622
S31508013EF008A92AF0CAFD78B93D44A4E7D8F83C30A8
S31508013F00012208A95B6998470422284608A92AF0CC
S31508013F10BCFD08B9043FDAE74FF0360948460BB04D
S31508013F20BDE8F08F4FF06309F8E74FF06F09F5E741
S31508013F30041900202DE9F0410F4616469846044615
S31508013F4088B060B390F83450FDB101211EF01EFB14
S31508013F5000210E9BCDE90511CDE902379DF83C30CC
S31508013F60CDF804808DF81C30237C04968BB90D4955
S31508013F7001AA04F1080000F0D7FEDDE90553E06B5C
S31508013F80002E08BF1D461EF09AFC284608B0BDE85B
S31508013F90F0812046044A01ABFFF7FEFDEDE7054631
S31508013FA0F3E700BF6D280308653D01082DE9F04FC9
S31508013FB099B00F4609920A69416C0E931439D31DBB
S31508013FC0B3FBF1F3013302EBC302036B04469342DD
S31508013FD0C0F00D820023DFF820940D93E36A48466A
S31508013FE01946079300F024FFD7E9033604930E9B7D
S31508013FF0022B4ED1CC2E40F08A81099B002B42D050
S31508014000394620461EF0B9FC656C079A6B1E1340AB
S315080140101490ED1AE36B01225B6916A97868984733
S3150801402016A81EF07BFE00280CBF04230823782E51
S3150801403006933DD9012300254FF0080A05933B68ED
S3150801404005990E98C9F80030C9F810601EF088FE67
S315080140504FEA9A0310930023DDF81CB089F814007F
S315080140600B930F9308930C93616C4A1E0BEA020299
S315080140708B1A002E38D05544AB4240D8236B5B1AB5
S3150801408013442363ABE0049B1B681493082306932C
S31508014090D0E7656C079A6B1E1340782EA5EB0305CE
S315080140A016D8FB7D7BB9099B002BB3D10423069354
S315080140B0331DAB4210D9A6B1082DBBD80425002360
S315080140C0AA460593BBE7099B002BA3D10823EEE774
S315080140D0099B002B9ED1D9E7002505954FF0040AC7
S315080140E0ADE704250596F9E75345C7D3B0460BEB6B
S315080140F00A030393089B002B18BF032313E0A3EBC2
S315080141000A039E42B0460BEB0A0228BF98469E4216
S315080141100392EFD90123D9F8102089F8173096426E
S3150801412071D1C9F804B0089399F81730002B6CD0EF
S3150801413099F818200899D31C09EBC3030132C3F86F
S3150801414004B0A3F80880997289F81820B8F1000F0D
S3150801415014D00E9B022B5BD10B9B7BB90F9B43445F
S31508014160032B0BD9E36B01229B69039814A9984782
S315080141700546002840F03D8101230B93089B16A8AC
S315080141800193059B009399F814204346396800F07A
S3150801419005FEE36B58469B69109A16A99847051EB2
S315080141A00D9B18BF5B4652460D935946434620461A
S315080141B01EF0E1FA236B08F10302A3EB0A0322F0CE
S315080141C003029B1AC9F808002363002D40F01181E8
S315080141D00F9BDDF80CB04344A6EB08060F9359462E
S315080141E020461EF09BFA00258346002E7FF43CAF3D
S315080141F0814A3968936804F10800E36252680E9BA4
S3150801420000F044FDDEE002238DE7C9F804B09DE71E
S31508014210099B002B30D1049BB8F1030F43440A9341
S3150801422027D9DDE90301E36B4FEA98029B699847B1
S315080142300546002865D118F003025FD0049B28F0D3
S3150801424003052B440493039B1D444FF0FF33049944
S3150801425015A815932AF04EFCE36B28469B690122A3
S3150801426015A9984705460A9B0493002D86D0039BFA
S3150801427099E74246039DE8E7039B0A9307F1200362
S315080142801193FB7D78689BB100233D7E0C9AD9B2C8
S315080142908D4211D9119903F1010C31F8331091426C
S315080142A026D9069907EBC303D8690A44104403E0E3
S315080142B00C9B069A13441844E36B01225B6915A902
S315080142C09847159B012213930C9B0A9804330C9368
S315080142D0E36B13A99B699847039B0A9A43449B1A64
S315080142E0042B054607D978B9134604330A93C8E758
S315080142F06346521ACBE70A9B0393B6E70A9B0493D4
S315080143003CE70A9B0493B2E70A9B0393AFE770263F
S3150801431004F1080303932368079A606CA2EB030A66
S31508014320BAFBF0FA00FB0A301EF0B2FDE16A8046DC
S3150801433020461EF0F3F9A26A82424AD0626CD9F885
S315080143400830511E0B40216B2568891A0B442363DB
S315080143500D9BE0625D1BB5FBF2F5AA4536D1079BBD
S31508014360B3EB080A12D0E36B4FEA9A0241469B69FE
S3150801437098478346E36A079A5344E362236B039893
S315080143809B1A434423631EF0D7FBDA462368616C04
S31508014390E06B01FB05311EF0F0FC20461EF001F929
S315080143A020461EF0FEF92063BAF1000F11D03A69D2
S315080143B0616CD31D1439B3FBF1F3013302EBC3026C
S315080143C09042A8D2304619B0BDE8F08F4FF0000AE6
S315080143D0DCE73A69616CD31D1439B3FBF1F3013398
S315080143E002EBC302236B9342BFF4F8ADEAE71C263E
S315080143F0E8E72E468CE700BFAC1800202DE9F34705
S315080144001E4643690446B342884617469DF82890D6
S315080144103DD300258DF8075020461EF08EF8D4F8B6
S3150801442030A082450AD2236AB5EB430F06D2002291
S3150801443020460DF10701FFF7EBFB30B39DF8073076
S31508014440012B05D1002220460DF10701FFF7E0FBFC
S31508014450B9F1030F06D0314620461EF059F8256BEF
S31508014460854218D30D4D4FF0FF31284600F0E0FC88
S315080144704B46002229462046C5E90376C5F8008041
S3150801448002B0BDE8F047FFF791BD0135C4E76220E8
S3150801449002B0BDE8F0871C20FAE700BFD818002053
S315080144A0032A2DE9F34106460D4617461C4606D151
S315080144B0237A012B23D0012002B0BDE8F081DFF871
S315080144C06080096842460DF10703FFF7BBFA606091
S315080144D00028EDD19DF80720237A032AE8D0D8F8D9
S315080144E004106A689142E3D1012B2969D4F80CC0FA
S315080144F007D172690CEB0103934202D92074207C1F
S31508014500DAE708316144E1603B4601222946304633
S31508014510FFF74CFD60600028CAD00020CCE700BF39
S31508014520D81800202DE9F341089C032A1746266866
S3150801453006D1237A012B24D0012002B0BDE8F081EF
S31508014540DFF89080304642460DF10703FFF77AFA05
S3150801455060600028EDD12568D8F80400A96AD5F865
S3150801456044C04840CCF100031840227AE1D1012A1F
S3150801457009D1E268D8F8103013447269934202D916
S315080145802074207CD9E72868EB6A1B1A081AB3FB42
S31508014590FCF3B0FBFCF083420BD1706CF36A421E4C
S315080145A01340326B121A1344284633631EF0B6F8C9
S315080145B0E862D8F81020E36808321344E360012260
S315080145C03B4604492068FFF7F1FC60600028B0D03B
S315080145D00020B2E7D81800202DE9F04F4FF0FF333D
S315080145E04FF6FF720025044600F10806C0E90923C3
S315080145F08BB0C3620562056330460F461EF09CFA0E
S3150801460020461DF0CEFF20BB204639461EF049F84C
S3150801461020461DF0C6FF20BB5E200BB0BDE8F08F1B
S31508014620E26B2368606CD2F814C000FB05300522E2
S3150801463005A9E04705A81EF0FBFB012828D1294654
S3150801464020461DF0FFFF421C294620461DF0C8FFE3
S315080146500135E3699D42E3D320461DF0A2FF0028F8
S31508014660D2D000254FF0FF394FF6FF73CA46A84648
S31508014670C4E90853E369984514D3A5EB0905012D47
S3150801468036D84FF6FF72636A934246D16720C4E76C
S315080146901EF0F8FB0028DBD0294620461DF0D2FF84
S315080146A00246D1E72368E26B606C576900FB083064
S315080146B0052205A9B84705A81EF0BAFB834605A831
S315080146C01EF08DFB074658461EF0D7FB68B15745C5
S315080146D038BFC4F82480B94528BFB946BD4238BF9A
S315080146E03D46BA46236A0133236208F10108C1E748
S315080146F04FF6FF7300256362E3699D42C1D2676C79
S315080147002068E36B052207FB05005B6905A9984745
S3150801471005A81EF064FB0135EEE7E26B676C2068BD
S31508014720694607FB030055690522A84768461EF036
S3150801473056FB626A2368606C504D00FB02301EF01E
S31508014740A7FB4FF0FF33A062E3622A466FF001012F
S31508014750204605ABFFF776F900284FD1AD68294603
S315080147602046E5621DF0F9FE206320B92046E16A7C
S315080147701DF0D4FFE062294620461DF0CFFF05460D
S31508014780A36A9D423CD16569626CE91C143AB1FB86
S31508014790F2F14FF0000805EBC1050335B5FBF2F55B
S315080147A0C1460235E36999453CD3A8455AD2204604
S315080147B0616A1DF026FF0027064604F1400AB8453E
S315080147C012D8626C2368694602FB0639E36B052237
S315080147D05B694846984768461EF001FB5346024600
S315080147E04946E06B1EF056FB314620461DF009FF8F
S315080147F00137AF420646E2D364200EE7A56AAEE763
S31508014800294620461DF0A9FE236B2946034407467F
S31508014810236320461DF082FF0546002FB0D1C4E967
S315080148200B07ADE7636C2768052203FB0977E36B82
S3150801483005A95B693846984705A81EF0F9FA1EF0DE
S315080148401CFB60B138461EF023FB014620461DF0CD
S3150801485084FE636C143B984208BF08F1010809F10C
S3150801486001099FE730461EF067F9002320461946DD
S31508014870034AFFF791F90020CFE600BFD8180020B8
S31508014880092803080023624A2DE9F04117680E46F4
S315080148900446136018B921252846BDE8F08190F829
S315080148A034500DB309680268914240F0A9807168D5
S315080148B04268914240F0A480B1688268914240F012
S315080148C09F80F168C268914240F09A8031694269D5
S315080148D0914240F09580B169C26B914240F0908057
S315080148E072691D468261D7E750222946D0F8388079
S315080148F02AF0F5F8D6E90212336804F108002360B4
S315080149007368C4F838806360336963617369A36146
S315080149101EF024F9B36904F14000E3639B689847E4
S3150801492094F8432020B1E561002AB4D05B25B3E7AA
S31508014930656C002DF7D06668B6FBF5F3E361002ACE
S31508014940A9D0B542F2D82268B2FBF5F105FB1122CE
S31508014950002A57D105FB1363002B53D120461DF0BE
S31508014960ECFDA369043303449E424DD340F63472E9
S315080149706369CC3B934249D8B5F5805FD6D3032109
S3150801498020461DF003FED4E90001E36B1B68984736
S315080149900546E36B0220DB6898471DB1002384F8BE
S315080149A034301DE039462046FFF716FE64280546D1
S315080149B004D139462046FFF70FFE0546636C143BC2
S315080149C0002DEBD1226A204602FB03F61DF0B5FD48
S315080149D0A369043303449E4206D284F834505A2507
S315080149E0E06B1DF06CFF57E70123D4E90001094A82
S315080149F084F834301368013313601EF049F9EFE780
S31508014A005D2549E7592547E75A2545E75F2543E7E0
S31508014A103C120020381200202DE9FF410F4690462E
S31508014A201E46054698B390F8343093B3B1F5801F06
S31508014A3031D21A4C02211DF0A9FD224639462846D3
S31508014A400DF10F03FEF7FEFF024678B10123424638
S31508014A500093394633462846FFF7D0FC0446E86BEF
S31508014A601DF02DFF204604B0BDE8F0819DF80F30FA
S31508014A70012BEBD12169B142E8D100934146334676
S31508014A802846FFF7A5F904460028DFD1E7E72124E0
S31508014A90E8E71124E6E72924E4E700BF0419002022
S31508014AA02DE9FF410C4616461F46054680B390F888
S31508014AB034307BB3B1F5801F2ED2DFF86080012137
S31508014AC01DF064FD2146424628460DF10F03FEF707
S31508014AD0B9FF044670B99DF80F30012B11D1D8F8EA
S31508014AE01030BB4212D10246009031462846FFF7E4
S31508014AF06FF90446E86B1DF0E2FE204604B0BDE8F6
S31508014B00F081022B14BF2D246024F3E76324F1E717
S31508014B102124F2E71124F0E72924EEE704190020FD
S31508014B202DE9F04385B00C4617461E460546DDF8C5
S31508014B30308098B390F8343093B3B1F5801F31D2F1
S31508014B40DFF8649001211DF021FD21464A462846D9
S31508014B500DF10F03FEF776FF044688B99DF80F306D
S31508014B60012B14D1D9F8102006EB08039A4213D366
S31508014B7000904346324639462846FFF729F9044646
S31508014B80E86B1DF09CFE204605B0BDE8F083022BBC
S31508014B9014BF2D246024F3E76324F1E72124F2E707
S31508014BA01124F0E72924EEE7041900202DE9F34141
S31508014BB01F4600230C46164605463B6050B390F83F
S31508014BC034304BB3B1F5801F28D2DFF85480012168
S31508014BD01DF0DCFC2146424628460DF10703FEF787
S31508014BE031FF0446A0B99DF80730032B10D0022BDC
S31508014BF00AD10123336004233B60E86B1DF05FFE95
S31508014C00204602B0BDE8F081D8F810303060F3E7ED
S31508014C102D24F2E72124F3E71124F1E72924EFE70C
S31508014C200419002030B50C46054685B028B390F81E
S31508014C30343023B3B1F5801F23D202211DF0A6FC1F
S31508014C400DF10F03214628460F4AFEF7FBFE0346E0
S31508014C5088B99DF80F20032A0DD003222146009218
S31508014C6002462846FFF7CAFB0446E86B1DF027FEF5
S31508014C70204605B030BD2D24F7E72124F8E7112495
S31508014C80F6E72924F4E700BF041900202DE9F043CB
S31508014C90466886B3056898464FF0000CA946AE46A5
S31508014CA055F83C400CF1010CC4F31307013401D04B
S31508014CB0B94217D066450EF1080EF1D12F460024E8
S31508014CC003E0A64207F1080712D055F8343001343B
S31508014CD00133F6D1C1F3130141EA0851C7E90012BC
S31508014CE0BDE8F08341EA0851CEE90012BDE8F08338
S31508014CF0B8F1030F03D101230372BDE8F083002342
S31508014D0003E09E4209F10809F5D055F8334001330D
S31508014D10C4F30754032CF4D1C1F3130343EA08532C
S31508014D20C9E90032BDE8F0832DE9F041064640683D
S31508014D3082B0C0B10F4690460024336853F8345008
S31508014D4003EBC403C5F30752C5F31301013504F197
S31508014D50010406D05B683046CDF80080B84710B12B
S31508014D6070688442E9D302B0BDE8F081024B196844
S31508014D70024B1868FFF786BD403B0020603B0020C8
S31508014D8008B52CF0CAFE014B186008BD3019002081
S31508014D90014B18682CF0BCBE3019002073B50446C7
S31508014DA02248012A00EAC1119DF8185023F07C40D7
S31508014DB007D9961E012E28D9073303F07F03194315
S31508014DC008E09DF81C300A43DB0603F0C053134381
S31508014DD043F060410023C4E900108DF80730B5B1EE
S31508014DE0202221460DF107001EF06EF81A220DF158
S31508014DF00700211D1EF068F8082063689DF8072042
S31508014E0043EA8263636002B070BD1143E2E71B2285
S31508014E100DF1070021461EF057F823689DF8072073
S31508014E20042043EAC2632360EDE700BF80FFFF0762
S31508014E3038B5094B0D461A680021044629F04FFE7C
S31508014E4000234FF0FF322383C4E900252361A260C2
S31508014E50E382A37638BD00BF803104080138C0B2A9
S31508014E6005289ABF014B185C012070478531040853
S31508014E702DE9F0410746154600240E46596888B0C3
S31508014E80490A012922464FEA510104F10104F8D8D9
S31508014E90DC78997824031B88C90201F4006104F4BB
S31508014EA080540C43C3F30A035203234492B24FF0CE
S31508014EB000089C18274B6FEA0444039325F07843AE
S31508014EC0ED4302A90DF107001B2202938DF8078015
S31508014ED01DF0FAFF9DF80720029B02A943EAC26367
S31508014EE00DF107001B2225F07845049302958DF8EC
S31508014EF007801DF0E9FF9DF80720029B6FEA14441D
S31508014F0043EAC26305934FF0FF330794069307A953
S31508014F10BB69012206F110009847BB6905A9044639
S31508014F20012206F108009847BB69404518BF0446A7
S31508014F3004A90122301D98470122404518BF04469D
S31508014F40BB69304603A99847404508BF204608B0C3
S31508014F50BDE8F08101009AB2044BD3F88420D20649
S31508014F60FBD4D3F88400C0F3811070470040005089
S31508014F7038B5174B0546D3F828310C4603F0070315
S31508014F80013B052B20D8DFE803F003131B0F0B1792
S31508014F902AF030F8052305B1286004B1236038BD2D
S31508014FA02AF028F80623F6E72AF06EF80723F2E72F
S31508014FB02AF060F80323EEE72AF05CF80423EAE70F
S31508014FC02AF054F80223E6E700231846E3E700BF70
S31508014FD000800050002337B50193164B0546D3F8D8
S31508014FE020320C4603F00703042B21D8DFE803F02F
S31508014FF0030B11161B0001230DB1019A2A6004B196
S31508015000236003B030BD002101A8FFF7B1FF1223C9
S31508015010F2E72AF039F807230190EDE72CF072FD43
S315080150200A230190E8E72AF077F809230190E3E7D4
S315080150300023E1E70080005038B5104B0546D3F848
S3150801504050320C4603F00303022B12D0032B08D06F
S31508015050012B0AD00023184605B1286004B1236044
S3150801506038BD2CF052FD0C23F6E72CF04BFD0A2334
S31508015070F2E72AF051F80923EEE700BF0080005055
S3150801508038B5104B0546D3F880300C4603F00303B8
S31508015090022B0BD0032B0DD0012B0FD129F0B0FF1A
S315080150A00E2305B1286004B1236038BD29F0ECFF51
S315080150B00723F6E729F09EFF0623F2E700231846A1
S315080150C0EFE700BF0080005038B5104B0546D3F80E
S315080150D000310C4603F00303022B0BD0032B0DD032
S315080150E0012B0FD129F0C6FF032305B1286004B1AE
S315080150F0236038BD2AF010F80923F6E729F0C0FF26
S315080151000823F2E701230020EFE700BF00800050E3
S3150801511038B5184B0546D3F820010C4600F00700B0
S31508015120062823D8DFE800F0040A0E16121A1E0014
S31508015130012305B1286004B1236038BD29F05AFF5F
S315080151400523F6E729F096FF0323F2E729F09CFFEA
S315080151500723EEE729F08AFF0223EAE729F04AFF47
S315080151600623E6E729F086FF0423E2E7002318462B
S31508015170DFE700BF0080005038B5104B0546D3F86D
S3150801518040310C4603F00303022B0BD0032B0DD041
S31508015190012B0FD12CF0B6FC0A2305B1286004B106
S315080151A0236038BD29F0B8FF0923F6E72CF0ADFCDA
S315080151B00C23F2E701230020EFE700BF008000502F
S315080151C0002337B50193164B0546D3F860320C46D2
S315080151D003F00703013B032B1FD8DFE803F0020E98
S315080151E01914002101A8FFF793FF10230DB1019AA5
S315080151F02A6004B1236003B030BD002101A8FFF77E
S31508015200BBFF1123F2E729F03FFF07230190EDE7E2
S3150801521029F02CFF02230190E8E70023E6E700BF07
S3150801522000800050002337B50193164B0546D3F885
S3150801523094320C4603F00703013B032B1FD8DFE822
S3150801524003F0020E1914002101A8FFF761FF1023CC
S315080152500DB1019A2A6004B1236003B030BD002163
S3150801526001A8FFF789FF1123F2E729F00DFF0723AC
S315080152700190EDE729F0FAFE02230190E8E7002301
S31508015280E6E700BF0080005038B5104B0546D3F855
S3150801529060310C4603F00303022B0BD0032B0DD010
S315080152A0012B0FD12CF02EFC0A2305B1286004B17D
S315080152B0236038BD29F030FF0923F6E72CF025FCD9
S315080152C00C23F2E701230020EFE700BF008000501E
S315080152D02E4B98424AD022D82D4B984240D014D80A
S315080152E02C4B984239D00AD82B4B984232D02B4BAB
S315080152F098422FD02A4B98422CD000207047294B30
S315080153009842FAD1284B186F7047284B98422AD0F1
S31508015310274B9842F1D1244BD3F880007047254B8F
S3150801532098422BD009D8244B984223D0234B984234
S31508015330E3D11D4BD3F88C007047214B984221D0FD
S3150801534003F5740303F510539842D6D1164BD3F8D7
S3150801535098007047144B986D7047134B586E7047F9
S31508015360114B586F7047104B986F70470E4BD3F817
S31508015370840070470C4BD3F8880070470A4BD3F862
S3150801538090007047084BD3F8940070470048E8012D
S315080153900024F400C0CF6A0080841E0000093D0085
S315080153A040420F00405DC6000080E00FC0EA2101BF
S315080153B080BA8C01007E560380D54302006CDC025C
S315080153C00090D00373B50D460021114B0191D3F816
S315080153D08041064604F00304022C13D0032C0CD09A
S315080153E0012C13D101A8FFF793FE10240EB1019BDE
S315080153F0336005B12C6002B070BD29F045FE072463
S315080154000190F3E729F032FE0190EFE70C46EDE74C
S315080154100080005038B5104B0546D3F840320C468B
S3150801542003F00303022B0BD0032B0DD0012B0FD155
S315080154302CF068FB0A2305B1286004B1236038BD46
S3150801544029F06AFE0923F6E72CF05FFB0C23F2E745
S3150801545001230020EFE700BF0080005038B5144B48
S315080154600546D3F800020C4600F0070004281BD8AD
S31508015470DFE800F003090D111500012305B12860C5
S3150801548004B1236038BD2CF03DFB0A23F6E729F069
S3150801549043FE0923F2E72CF038FB0C23EEE729F04B
S315080154A0CFFD0F23800AE9E700231846E6E700BF88
S315080154B00080005038B5144B0546D3F808020C464F
S315080154C000F0070004281BD8DFE800F003090D11D6
S315080154D01500012305B1286004B1236038BD2CF0FD
S315080154E011FB0A23F6E729F017FE0923F2E72CF048
S315080154F00CFB0C23EEE729F0A3FD0F23800AE9E74D
S3150801550000231846E6E700BF00800050B0F5207F6B
S315080155101FD009D8B0F5007F15D003D868B1B0F50A
S31508015520C07F0AD000200CE0B0F5607FFAD10B4BA2
S31508015530D3F88000C0F3011003E0084B186FC0F3DD
S31508015540033001307047054BD3F89000C0F304606F
S31508015550F7E7024B186FC0F38020F2E7008000508E
S3150801556002464FF48030104B10B598660020FFF7BD
S31508015570CDFF504341F671320C4BDC69DA635A6848
S3150801558004F4803422F4401259B90949884294BF77
S3150801559000200120000502435A600CB10022DA639B
S315080155A010BD0449F2E700BF009000500000035007
S315080155B0005A6202002D31014209531E022B96BF81
S315080155C0074B002303EB820300F01F0029B103F503
S315080155D08053012282401A60704703F50053F8E7A9
S315080155E0608000501FB50021B0F5807F0446CDE9E3
S315080155F0001100F0CF803BD8002800F0A480A0F16C
S315080156002004602C44D8602C42D8DFE804F09CA41E
S315080156109CA4B4B4B4B4B4A4BE4AD46A4AA4A4A497
S315080156204141414141414141A4A4A47CDEA44141F7
S3150801563041414141414141414141E3B49C9C9CD98D
S315080156404A4A88E85FB94141414141939C41B4B412
S31508015650B4B4B4B9B9A441A4A441414141414141B9
S315080156604141414141414141414141414141980005
S31508015670B0F5E06F00F0A98038D8B0F5607F75D035
S315080156801AD8B0F5007F61D005D8B0F5C07F5AD0D9
S31508015690009804B010BDB0F5207F5CD0B0F5407F0E
S315080156A0F6D129F0CDFC02464FF42070FFF72EFF04
S315080156B0B2FBF0F2520857E0B0F5B06F65D00AD8E0
S315080156C0B0F5806F57D0B0F5A06FE1D100216846DB
S315080156D0FFF780FCDCE7B0F5C06F6CD0B0F5D06F92
S315080156E0D6D100216846FFF7B9FED1E7B0F5186FA4
S315080156F070D00DD8B0F5086F7FD0B0F5106F5FD0B8
S31508015700B0F5F06FC4D100216846FFF7BDFDBFE7CC
S31508015710B0F5286F63D007D8B0F5206FB8D100214E
S315080157206846FFF74DFDB3E7B0F5406F28D0B0F5F1
S31508015730486FADD100216846FFF774FDA8E729F047
S315080157405FFC0090A4E729F07BFCFAE729F058FCF6
S315080157500246204604E029F073FC02464FF4207005
S31508015760FFF7D4FEB2FBF0F2009291E701A8FFF72A
S3150801577087FC019AEDE700216846FFF7C9FC87E730
S3150801578000216846FFF7F4FB82E700216846FFF728
S3150801579019FE7DE74FF0E02302911B695B0705D5EA
S315080157A029F04EFC0290029B009371E703A902A817
S315080157B0FFF7E2FCF7E700216846FFF7DDFC67E73C
S315080157C000216846FFF776FE62E700216846FFF783
S315080157D021FE5DE700216846FFF72EFC58E7002108
S315080157E0084B0391D3F8703203F00303012B02D15E
S315080157F003A8FFF7C1FC039BD6E76846FFF764FCDD
S3150801580046E700BF0080005008B58020FFF7EAFE92
S31508015810034B98429EBF4FF48032024B1A6708BD6C
S31508015820005A620200A000501FB503460020B3F5D6
S31508015830807F019000F0F48000F28E80662B7DD87F
S315080158403C2B06D8243B092B5ED9019805B05DF897
S3150801585004FB3D3B292BF8D801A252F823F000BFDF
S31508015860435A0108715A01084B5801084B58010857
S315080158704B5801084B5801084B5801084B58010869
S315080158804B5801084B5801084B5801084B58010859
S315080158904B5801084B5801084B5801087B5A010817
S315080158A0175A01084B5801084B5801084B5801086B
S315080158B0BF5901084B5801084B580108D959010825
S315080158C0855A010881590108675A01084B58010888
S315080158D04B5801084B5801084B5801084B58010809
S315080158E0F15901084B5801084B580108175A010884
S315080158F0175A0108175A0108175A0108175A0108B1
S31508015900675A0108675A0108092B9ED801A252F85D
S3150801591023F000BF175A0108175A0108175A010838
S31508015920175A0108175A01084B5801080D5A010858
S315080159304B5801089F5901084D5A0108802B84D1FB
S31508015940594B1B6F03F00703013B032B3FF67DAF52
S31508015950DFE803F05A535658B3F5F06F71D023D8E0
S31508015960B3F5B06F52D010D8B3F5607F77D0FFF496
S315080159706CAFB3F5806F4ED0B3F5A06F7FF465AF0A
S31508015980002001A9FFF726FB5FE7B3F5D06F5DD0CD
S31508015990B3F5E06F6CD0B3F5C06F7FF456AF002056
S315080159A001A9FFF7E9FB50E7B3F5186F65D00BD8E6
S315080159B0B3F5086F4FD0B3F5106F7FF446AF0020EB
S315080159C001A9FFF777FD40E7B3F5286F5AD008D844
S315080159D0B3F5206F7FF439AF002001A9FFF7F0FB7B
S315080159E033E7B3F5406F3ED0B3F5486F7FF42DAF7B
S315080159F0002001A9FFF716FC27E70523019324E7F1
S31508015A000323FBE70823F9E70223F7E7002001A9A7
S31508015A10FFF7D8FC19E7002001A9FFF779FB14E77E
S31508015A204FF0E02302901B695B0705D529F008FBB7
S31508015A300D230393039BE1E703A902A8FFF79CFB48
S31508015A40F8E7002001A9FFF71FFCFEE6002001A9DF
S31508015A50FFF704FDF9E601A9FFF736FBF5E601A90B
S31508015A60FFF70EFBF1E6002001A9FFF781FAECE644
S31508015A70002001A9FFF7CEFCE7E6002001A9FFF700
S31508015A80DBFAE2E6084BD3F8703203F00303012B85
S31508015A9004D0022B0CBF15230023AFE7002103A86E
S31508015AA0FFF76AFB1123A9E7008000504FF4803203
S31508015AB0074B0849586E03F580535A664B6A23F01B
S31508015AC001034B62C3035CBF034B5A66704700BFB1
S31508015AD0008000500000085000A0005008B5FFF7EC
S31508015AE0A3FE092811D00A38012802D94FF6FF70FA
S31508015AF008BD4FF48002064B5A6603F5D8335B6A34
S31508015B00DB07F3D54FF4FA70F2E7024B1888EFE793
S31508015B1000900050683D002008B5FFF785FE032870
S31508015B200ABF024B4FF6FF70188808BD663D002074
S31508015B3038B504468020FFF777FE032800F08380F6
S31508015B404FF48012524B4FF0A0615A6645F60E0289
S31508015B50504BC3F88020504A91624FF4803102F5C8
S31508015B60805291629A6DD203FCD4996D11F08041ED
S31508015B70FBD1D4E90002120542EA0062E07B024346
S31508015B80207B42EA0042607B42EA0032A07B42EA7D
S31508015B9080121A619869D4E90452120642EA8562AA
S31508015BA000F000400243A07EE57E0243207E42EAE1
S31508015BB00042607E42EA00229A611A6AE06922F08E
S31508015BC00F0242EA8502354D00283DD11A6294F842
S31508015BD02420996A94F82000D200294042EA40120A
S31508015BE00A4394F8211042EA011242F480329A6279
S31508015BF02B49284A936D31EA0303FBD14FF0807193
S31508015C00254881621369A56823F4700343EA05539D
S31508015C1013614FF00043836194F822300BB9214B8D
S31508015C20996294F823303BB94FF480321D4B9A623E
S31508015C30184A936D5B00FCD494F825301BB1154BBB
S31508015C40194AC3F8802038BD024342F008020228E7
S31508015C501A6208D119614FF40852996113484FF431
S31508015C607F411DF04FF90B4994F822308A6A94F85E
S31508015C7020001B062A4043EA4013134394F82420C4
S31508015C8043EAC20394F8232043EA02438B62D3E72B
S31508015C90009000500040005A0050005AC7FFFEFE0F
S31508015CA0030001000060005AF1A7FFFF3440005AC3
S31508015CB0014B93F9000070477A3D0020F0B5D0E911
S31508015CC001434FF400061A4A4178057856664FF49F
S31508015CD0D156022702F5B8325662164E4F29776019
S31508015CE04FF0010728BF4F2106F5805677601669E0
S31508015CF0F603FCD441EA052151611B01417B43EAC4
S31508015D0004230B43017B43EA41039360C37B817BF5
S31508015D101B0143EA4113417C0B43017C43EA4103DE
S31508015D205360837C13B16FF4D1535362F0BD00BF46
S31508015D300090005000100250014B1880704700BFB8
S31508015D40683D0020014B1880704700BF663D002062
S31508015D504FF4800208B5184B5A660223174A536056
S31508015D60936813F48033FBD1012822D129F082F9F3
S31508015D70134B984215D003F5122303F5F86398429D
S31508015D8013D0104B00EB8002400AB3FBF0F3520A22
S31508015D900A49CA620B6301234B620022074B5A6008
S31508015DA008BD45F67A13084AF2E745F61A03074A83
S31508015DB0EEE75362F1E700BF009000500040025041
S31508015DC000F0490264666666D8B80500BBCF0500CF
S31508015DD0B0F5207F10B50C465DD008D8B0F5007F28
S31508015DE04ED003D8C0B1B0F5C07F15D010BDB0F5FF
S31508015DF0607FFBD12C4B4C1ED3F8FC202B4912F0AB
S31508015E00807F4FEA041427D1D1F8803023F030037C
S31508015E102343C1F88030E9E71DF083F81DF08FF8B8
S31508015E204FF48031224B214A1967136F013C23F441
S31508015E30704343EA0433136729F002F90446FFF76E
S31508015E408BF8C0F1020120461DF073F800F04AF8FC
S31508015E50BDE81040FFF7D8BCD3F8FC2022F08072C9
S31508015E60C3F8FC20D1F8802022F030022243C1F881
S31508015E708020D3F8FC2042F08072C3F8FC20B5E7F5
S31508015E800A4A4C1ED2F8903023F0F85343EA0463C9
S31508015E90C2F89030AAE7054A4C1E136F23F48063B3
S31508015EA043EA84231367A1E700ED00E00080005070
S31508015EB00090005008B50121022000F095F94FF431
S31508015EC02070FFF723FB054B18701DF02AF81DF00B
S31508015ED036F84FF48032024B1A6708BD8636002021
S31508015EE00090005008B54FF4C070FFF77BFBBDE882
S31508015EF008400449884294BF012102214FF42070C9
S31508015F00FFF766BF80F0FA0238B5044629F098F81B
S31508015F100546FFF721F8C0F1020128461DF009F8E8
S31508015F200121002000F0A0F92CB1FFF7DBFFBDE845
S31508015F303840FFF769BC034B4FF420701978FFF717
S31508015F4047FFF4E7863600204FF4C02270B50546B0
S31508015F50FFF7BEF9314B04465A6603F598335A687A
S31508015F60012A04D12E494A605A689207FCD4802036
S31508015F70FFF75AFC052807D11CF0D3FF1CF0DFFFF9
S31508015F804FF48032254B1A67264B24F040749D4204
S31508015F9030D0254B9D4230D029F02CF88542064653
S31508015FA003D90121284600F05FF9204BDA6812F07F
S31508015FB0060FFBD199689C609A68624012F4F81F33
S31508015FC01ED12846FDF73CF88020FFF72DFC052851
S31508015FD00DD129F035F80446FEF7BEFFC0F10201DE
S31508015FE020461CF0A6FFFFF77DFFFFF70DFCAE422A
S31508015FF00CD270BD44F00074CEE744F08074CBE750
S3150801600080209960FFF710FC052805D0BDE870408F
S315080160100121002000F028B93546DAE70090005042
S3150801602000E0015040420F0080841E00000001502C
S31508016030304B314A984251D020D8A3F5B703A3F57E
S315080160405863984246D00DD82C4B984231D02C4BE8
S31508016050984239D02B4B4FF4002198421DD000238A
S31508016060516622E0284B4FF400219842F7D1274B7D
S31508016070D3F8BC30516623F0407316E0244B98429E
S3150801608030D0244B984231D0234B4FF4002198420B
S31508016090E5D11E4BD3F8C830ECE71C4BD3F8A0303A
S315080160A0516623F0407343F000734FF0B442936096
S315080160B070474FF40021154BD3F8A030516623F0F1
S315080160C0407343F08073F0E7104BD3F8A0304FF4D8
S315080160D00021CFE70D4BD3F8B830F8E70B4BD3F8CF
S315080160E0C030F4E7094BD3F8CC30F0E7074BD3F8C7
S315080160F0D030ECE7C0EA21010090005080841E00F0
S3150801610000093D0040420F000024F4000080E00F22
S315080161100048E801005A620280BA8C01024A536BB0
S315080161200342FCD1704700BF00800950044A4178F8
S31508016130536F23F4407343EA01235367704700BF43
S31508016140004000500E4A10B51369044643F0040393
S31508016150136129F0E9FD1CF0F7FE0A4B5B6E5B0142
S3150801616042BF094B094AC3F8202430BF1CF0EDFE93
S3150801617003F00CFD1CB9BDE8104028F061BF10BD45
S3150801618000ED00E00080005000E003500000FF0F22
S315080161900C4A10B51369044643F0040313610A4B0C
S315080161A05B6E5B0142BF094B094AC3F8202429F0FB
S315080161B0BBFD30BF03F0EAFC1CB9BDE8104028F06E
S315080161C03FBF10BD00ED00E00080005000E0035025
S315080161D00000FF0F034A0179D36E23F030030B4306
S315080161E0D366704700400050F8B504461C4BD3F8F7
S315080161F08420D106FBD4D3F88430C3F381139C429F
S315080162002CD028F0FDFE012C064602D121461CF0B1
S3150801621090FE2BF082FC4FF00072124B07465A662D
S3150801622020461CF095FE4FF480630D4D621E934087
S315080162302B676B6E9A0103D4D5F884309B060AD571
S3150801624038462BF065FC022C08D13046BDE8F840EB
S3150801625000211CF06EBED5F88430EAE7F8BD00BF10
S31508016260004000500060005010B50C4608B928F0EF
S31508016270C7FE074B21461B783BB1064B984204D80B
S315080162800120BDE81040FFF7AFBF0220F9E700BFC4
S3150801629087360020005A62020278034B012100204A
S315080162A01A70FFF7E1BF00BF873600204FF00042A2
S315080162B038B5244B244C5A664AF6CD33656C0146EB
S315080162C005F00105236428BB0120FFF727FF636852
S315080162D0DB0715D51D4B586008461D4B226BD207A7
S315080162E00CD4984208D1072415B1174B194A1A64D8
S315080162F025F06DFB204638BD0130EFE79842F2D014
S315080163000024F1E70132236B13F0080305D08A4212
S31508016310F8D1E8E700220E49F5E78A42E3D02021C1
S315080163200A4A91620121A2F5805251600649084A3A
S31508016330886A800603D49342D5D00133F8E793429D
S31508016340DDE700BF009000500080095000A0095009
S3150801635040420F003254FFFF4FF0004238B5164B4A
S3150801636001465A664AF6CD33144C154A656C2364C0
S3150801637043780B205B0043F00103D363FFF7CEFE9E
S3150801638063688A7823F4F87343EA02136360CA7868
S315080163904B7943EA0223A3600A798B7943EA0223FC
S315080163A023610878FFF782FFEB0744BF054B236497
S315080163B025F00DFB012038BD0090005000800950E2
S315080163C0004000503254FFFF4FF00042124B70B5A7
S315080163D05D6E03F580535A664AF6CD3304460F4976
S315080163E080204E6C0B64FFF799FE0B6A23F00F03AE
S315080163F00F2C94BF234343F00F030B62F30744BFEB
S31508016400074B0B64002DA2BF4FF00042054B5A669D
S3150801641025F0DDFA70BD00BF0080005000800950EC
S315080164203254FFFF00A000504FF00042104B70B5E8
S315080164305D6E03F580535A664AF6CD3304460D4917
S3150801644080204E6C0B64FFF769FE0B6A23F4F85340
S3150801645043EA04230B62F30744BF074B0B64002D81
S31508016460A2BF4FF00042054B5A6625F0B0FA70BD3F
S3150801647000800050008009503254FFFF00A00050F0
S315080164802DE9F04105460F461E4690464AB10123BD
S315080164903022194C8B4002FB004436B304F5825472
S315080164A023600F21072F05EB450388BFA7F10804D1
S315080164B04FEA0313114895BFBC00A40004330C33FB
S315080164C008FA04F2A14018441CF043FDB8F1000F84
S315080164D009D101233021084ABB4001FB05223EB1FF
S315080164E002F582521360BDE8F08104F50154D7E73D
S315080164F002F50152F6E700BF00C0035030C0035051
S3150801650010B5232002F04AFB0024FF22064B214640
S315080165105C6520209A625C60FFF74EF82146BDE86B
S3150801652010402120FFF748B800000450044A054BE3
S31508016530002908BF1346012282401A60704700BF2E
S31508016540401004504020045010B501210446202073
S31508016550FFF732F801212120FFF72EF80122114B0E
S3150801656023205A60227812069A606178A27842EA54
S3150801657001429A61FF229A6200229A631A644FF0D5
S3150801658000425A654FF0FF3203F500531A6502F0CF
S3150801659033FB2320E1781DF0BEFCBDE81040232023
S315080165A002F00EBB00000450F8B50125C3B2D1F8BC
S315080165B000E091F80AC00F7B0C469D40CB7A1D4935
S315080165C01D4E0D65810001F1A04101F58821C1F833
S315080165D004E04FF0300E0EFB00601B05617B43EAB9
S315080165E00C4343EA475322F003020166C365026777
S315080165F02BF09CFA114B5D65237A13B1336C2B434F
S315080166003364637A13B1B36B2B43B3632279A379EA
S3150801661043EA0243074A93616179E37943EA01430D
S3150801662006498B61044B55639D64BDE8F8402BF020
S3150801663078BA00BF0020045000000450001004502E
S3150801664010B50124C0B284402BF070FA044B5A6D80
S3150801665022EA04025A659C62BDE810402BF061BA31
S315080166600000045010B50124C0B284402BF05EFA34
S31508016670074BDA6A224208D15B6B9C430CBF0124A3
S3150801668000242BF04EFA204610BD0024F9E700BF7E
S315080166900000045070B505462BF048FA3022084B25
S315080166A05E6B02FB05335C6E2BF03BFA0123EDB200
S315080166B0AB4033420ABFC4F30A100020013070BD53
S315080166C0000004504FF48032054B9A6641F6713248
S315080166D003F51C33DA63012203F50053DA607047C8
S315080166E00090005041F671320121064BDA6303F539
S315080166F00052D1600022DA634FF48032A3F51833D1
S315080167009A66704700000350013836289ABF024B33
S31508016710185C0020704700BF8B31040838B5C2F3F6
S315080167200625044602F0070241B942EA052242F467
S3150801673040220634074B43F8242038BD1146284623
S315080167401CF016FC02462846FFF7DEFF163442EA1D
S315080167500022EFE7008003504FF48032084B5A6657
S3150801676003F5EE239B69C3F3461203F00F010A43AF
S315080167704280C3F30342C3F3033342700370704785
S3150801678000900050014B986CD96C70470080E00F5F
S315080167900120034B9B680A3303F01F039840704797
S315080167A00080E00F0D4B984208D1A3F5D023C3F81A
S315080167B05812C36D43F08003C3657047084B98426E
S315080167C004D1A3F5D823C3F87412F2E7054B98420E
S315080167D004BFA3F5E023C3F89012EAE700000A50C4
S315080167E000400A5000800A5070B5054616461C46F8
S315080167F021B94FF42070FEF7F5FE0146402C1BD057
S3150801680003D8DCB1202C1BD070BD602CFCD104232D
S3150801681003FB06F2530803EB4113B3FBF2F3094AF0
S31508016820203B02EAC303AA6822F06002AA60AA68AA
S315080168301443AC60EB61E7E70623E9E71023E7E7D2
S315080168400823E5E7F8FF7F00012200F580535A6027
S3150801685040F6AA6341F20502436100230D498360AC
S31508016860C365C26000F500520361C361C3649164E4
S3150801687009498365884203D103650023436506E018
S3150801688006498842F8D001F580418842F4D00123AF
S3150801689053607047FFFF010000000A5000400A508C
S315080168A070B50D46FFF7D0FF012300F580567360DA
S315080168B0AB7C04461BB1836843F080438360EB7C61
S315080168C01BB12046297DFFF76DFF2A8A6B7B20467F
S315080168D01343EA891343E3602B7BD5E90112FFF7DA
S315080168E083FF6B7D1BB1A36843F48033A360AB7D43
S315080168F01BB1A36843F40043A360EB7D2A7E1B0703
S31508016900120502F4E00203F0E0431343A3656A7E2D
S315080169101E49931E012B1E4B1BD89C4215D003F50D
S3150801692080439C4213D003F580439C420CBF02234B
S315080169304FF0FF330220C1335B01C850032A1FD130
S315080169400423F3652B78636170BD0023F2E7012305
S31508016950F0E79C4210D00F4B9C420FD003F58043C1
S315080169609C420CBF02234FF0FF33022003F241136E
S315080169705B01C850012AE2E70023F6E70123F4E7A1
S31508016980042204F50053DA65DCE700BF00C00350B2
S3150801699000000A5000400A500122437801789A40C3
S315080169A030235943014B5A50704700BF40E003500A
S315080169B0034BD3F82424D3F820041040704700BFB2
S315080169C000C003502DE9F8431F4B0546D3F8103391
S315080169D04B1E0E2B0E461746047890F8018026D9D1
S315080169E051B34FF0000928461FB328F009FC0F21BF
S315080169F0B8F1070F04EB440488BFA8F108084FEA69
S31508016A000414124895BF4FEA88084FEA88080434E7
S31508016A100C3409FA08F201FA08F120441CF0E3FAE9
S31508016A2086B9284657B1BDE8F84328F0E9BB894637
S31508016A30D9E7FFF7B1FFDAE78946D8E7BDE8F843B2
S31508016A40FFF7AABFBDE8F88300C0035030C0035062
S31508016A50054B9A689107FCD45A689207F9D4DA6902
S31508016A60002AF6D1704700BF00C00A5008B528F0C1
S31508016A70D3FB0222014B1A6108BD00BF00C00A50B0
S31508016A8008B5FFF7E5FF0122024B03F580514A607D
S31508016A901A6108BD00C00A5008B5044B5968012996
S31508016AA003D1FFF7E3FF024B596008BD00C00A5046
S31508016AB000E00A5010B5064CFFF7CAFF6368012BC0
S31508016AC003D1FFF7E9FFFFF7C3FF0378E36010BDC2
S31508016AD000C00A50B8B94A680B7812B1127843EA6D
S31508016AE0C2034A7843EA42038A6812B1127843EA32
S31508016AF082138A7843EA8203CA6812B1127843EA92
S31508016B004223014A9364704700C00A504FF4803209
S31508016B100A4B5A6603F5EE239B69C3F303320270E7
S31508016B20C3F303424270C3F3461203F00F03134340
S31508016B3043804FF6FF738380704700BF0090005073
S31508016B40014B986CD96C70470080E00F70B504460C
S31508016B5025F009F8064630B90FCC044D0FC594E85F
S31508016B60030085E80300304670BD00BF34190020D4
S31508016B7047F6FF739A42F0B56FD002296FD8394BA1
S31508016B805B5C012B6BD8384DDF0005EBC30415F8A8
S31508016B903330A178012B13D10025E078401AA84299
S31508016BA002D80844C0B2F0BD431B6668A0EB530384
S31508016BB036F913609642D4BF1D4603F1FF30EEE75E
S31508016BC060680028EFD0B0F90040944204DBB0F9C0
S31508016BD002409442B8BF144683883D44FF2B19BF2F
S31508016BE0C8224FF0280CB0F90620B0F908C0A2EB6C
S31508016BF004030CBF0126002693FBFCF333446E788D
S31508016C001BB29E4201DD002B01DA731E1BB24FF443
S31508016C107A7C01339BB2071D5D1E2DB24FEAC50E64
S31508016C2000EBC505EA88AD689E4214FB025222EACA
S31508016C30E27202F15C02B2FBFCF204DD37F8335072
S31508016C4001339542E8D200EB0E039888904228BF9B
S31508016C501046884238BF0846A4E7FF20A3E700206C
S31508016C60A1E700BFC2310408341900200229F0B592
S31508016C7055D82C4B585C012851D82B4C04EBC00134
S31508016C8014F830004B6801280FD1C8788C789042E7
S31508016C9094BFC4EB0001C4EB0201001BCAB28242D5
S31508016CA0C8BF002233F91200F0BD002B37D088780F
S31508016CB0904202D3B3F90200F6E7CC78B3F90000A3
S31508016CC09442F1D94C789988013CA1F1FF067142A9
S31508016CD003F10405E4B2714103F10C07CEB2B442E3
S31508016CE016D805EBC1014FF47A756A43B1F902402A
S31508016CF04968521A04EBD47102EB610292FBF4F271
S31508016D009042D1DBB3F902009042CDDC10B2CBE759
S31508016D1037F831C04E1C9445E3D33146DEE70348C4
S31508016D20C2E700BFC2310408341900200080FFFF02
S31508016D3008B50448FFF70AFFBDE80840012024F01A
S31508016D4016BF00BFC8310408004870476A3D0020D5
S31508016D507FB50222084B0949CDE901234FF040735B
S31508016D60CDE90313052301A94FF0FF30059324F05C
S31508016D7047FF07B05DF804FB006A1800000304002A
S31508016D802DE9F04129F06AFB0128074620D929F0A7
S31508016D9099FB051E03DA01242046BDE8F0811F4B45
S31508016DA01B78002B37D14FF050081D4C04EB080017
S31508016DB0A465C4F85C8029F021FD206680B9012408
S31508016DC0012FE9D9284629F09FFB0028E4DAE2E7F2
S31508016DD0124B1B7803F0FF05002BE4D00024DBE7F8
S31508016DE00024104E214606F1100332460120C6E959
S31508016DF00044C6E9023829F0E5FD30660028DED0F0
S31508016E00032151201DF087F8512001F0D9FE0122F6
S31508016E10024B1A70D4E70024D4E700BF8836002055
S31508016E20B01900204C19002008B54FF098435B6C47
S31508016E30D90208D529F012FB0238012803D8094BD3
S31508016E40186E29F04DFE4FF098435A6CD202FCD5C4
S31508016E505B6D054A03F4702313605120BDE80840B1
S31508016E6001F0CABE4C190020743B00202DE9F043FD
S31508016E7093B08946DDE91A871D460446002858D08D
S31508016E80002956D0B8F1000F53D0002F51D013F076
S31508016E900F034ED1284829490FAE002A08BF0146DB
S31508016EA0A360C4E9001348463146E3611CF07EF944
S31508016EB000283BD120460F992AF079FE294620461B
S31508016EC02AF075FE6946484600F0EEFA70BB694637
S31508016ED020461CF099FB484603A91CF066FA28BB14
S31508016EE0204603A91CF090FBCDF830804FF001082D
S31508016EF045F00055CDF8348006AB0E950CAA07CAA5
S31508016F0083E80700194620461CF07EFB0F9709AB5C
S31508016F10CDF84080119596E8070083E807002046DA
S31508016F2019461CF07BFB204628F0DEF913B0BDE8B4
S31508016F30F0832120FAE700BF0001000400010104E3
S31508016F402DE9F0418CB0884616461D460446129F27
S31508016F5000284BD0002949D0002A47D0002F45D018
S31508016F600B68103B102B41D8214A22FA03F3D907A3
S31508016F703CD500231F4A8360C0E90023C36109A9E0
S31508016F8040461CF013F970BB204609992AF00FFEFA
S31508016F90294620462AF00BFE6946404600F084FA47
S31508016FA008BB694620461CF02FFB404603A91CF086
S31508016FB0FCF9C0B9204603A91CF026FB0696012652
S31508016FC0204606A945F00055079608951CF01CFBB6
S31508016FD0094B204609A909970A960B931CF01EFB33
S31508016FE0204628F081F90CB0BDE8F0812120FAE7A6
S31508016FF0010101000000040410000020F0B50C4650
S3150801700017461E46054695B0002874D0002972D049
S31508017010002A70D0002B6ED0036B0F2B5BD8002390
S31508017020364A3846C4E90023A360E36111A91CF076
S31508017030BDF800285BD1204611992AF0B8FD296BC5
S3150801704020460F2984BF01F00F0110312AF0AFFD48
S31508017050384602A900F028FA002848D1204602A994
S315080170601CF0D2FA384605A91CF09FF900283ED132
S31508017070204605A91CF0C8FA0122214B0895099258
S315080170800A932B6B05F1100003F00F0141F0005133
S315080170900B900F2B0C920D910E900F9243F000520C
S315080170A0109226D90A9B08A923F0005320460A9371
S315080170B01CF0AAFA0BA920461CF0A6FA0123119680
S315080170C012930F4B204611A913931CF0A7FA2046D9
S315080170D028F00AF90BE000F1200301900093012240
S315080170E0102339462046FFF7C1FE002897D015B070
S315080170F0F0BD0EA9DFE72120F9E700BF000004046F
S31508017100100000202DE9F04F9BB00C4690461F4613
S315080171100546DDF89090002800F0B280002900F0BD
S31508017120AF80002A00F0AC80002B00F0A980026B2A
S3150801713002EB09031B09B3EB121F02F00F0600F05D
S31508017140978000234F4A8B60C1E90023CB614046F3
S3150801715017A91CF02BF80346002840F0858006EB9A
S31508017160090B204617992BF00F0A2AF020FD5146E4
S3150801717020462AF01CFD404602A900F095F903466F
S31508017180002871D1204602A91CF03EFA404605A9FD
S315080171901CF00BF90346002866D14FF0010801904F
S315080171A005A920461CF030FA374A204608A9089551
S315080171B0CDF824800A921CF027FA46F00051AAEB72
S315080171C0060605F1100346F000560B93CDF83080FC
S315080171D00D910E97CDF83C8010960D99204621F019
S315080171E000510D910BA900931CF00EFA20460EA929
S315080171F01CF00AFA019B244A1193AAF1100343F0E1
S315080172000053CDF84880139305F120031493CDF864
S3150801721054801692139B204643F080431393139B85
S3150801722011A923F0005313931CF0F8F9204614A969
S315080172301CF0F4F9144A17A920461795CDF8608071
S3150801724019921CF0EBF9204628F04EF8AAEB0B012F
S3150801725049440190ABEB0A020098394427F04AFCED
S31508017260019B2A6B4A442A6318461BB0BDE8F08F76
S3150801727010304A463946304427F03CFC0023F0E7F3
S315080172802123F1E703020004100000202DE9FF473E
S315080172904FF000080E4617460446CDF80080002830
S315080172A059D022B90025284604B0BDE8F08700293F
S315080172B051D032F0030902F0030A1FD04FF0E06300
S315080172C0C0E9003801230191C0F808800293C0F88B
S315080172D01C8049F0005301A903931CF09FF9494604
S315080172E020462AF064FC204627F0FEFF054628B111
S315080172F04A464146304627F0F2FBD4E7BAF1000F79
S31508017300D0D04FF000084FF0E063C4E900380123FC
S31508017310CDF804D00293114B204601A9C4F8088080
S31508017320C4F81C8003931CF079F9042120462AF03D
S315080173303EFC204627F0D8FF054608B13A46D8E76D
S31508017340009A4E44EB00013522FA03F3AA4506F8E2
S31508017350013BF7D1A6E72125A5E700BF04000020D8
S31508017360F0B50F4616461D46044693B010B92120BE
S3150801737013B0F0BD0029FAD0002AF8D0002BF6D0B8
S31508017380002331461A4638461BF0B5FE0028EFD1D0
S31508017390304602A91BF04BFE0028E9D1EB68022B07
S315080173A00AD039683F48029A81426B6902D018307F
S315080173B0814270D19A42DAD82B68002BD7D14FF087
S315080173C060623846C4E90023A360E36101A91BF0A2
S315080173D0EDFE0028CCD10199204621F4F0610191F6
S315080173E02AF0E5FB694628461BF0E0FE0028BFD1D6
S315080173F0204600992AF0DBFB384609A900F054F823
S315080174000028B5D1204609A91CF0FEF838460CA972
S315080174101BF0CBFF0028ABD120460CA91CF0F4F8D1
S31508017420EB684BB1284606A900F03EF800289FD123
S31508017430204606A91CF0E8F8304603A91BF0B5FF5B
S31508017440002895D1B368DA040CD59B0427D5062103
S31508017450F36932691B6801FB03225B0043F00053A1
S3150801746003920593204603A91CF0CEF828460FA9D6
S315080174701BF09BFF00287FF47BAF20460FA91CF069
S31508017480CDF80325204627F02FFF01287FF470AF9A
S31508017490013DF7D16CE7B3EB420F8DD267E729209F
S315080174A066E700BF200000B090B189B101234B60A7
S315080174B0C368013B012B08D88269064B1AB10A60D9
S315080174C000208B607047044AF9E74FF00053F7E74D
S315080174D02120704708000020A443040870B50E4611
S315080174E0154604468AB000285BD0002959D0002ADF
S315080174F057D0012329461A4630461BF0FCFD0028C1
S315080175004DD1B36813F4C04F4BD0AB6803F4C043F5
